:020000040800F2
:10000000707D002071020008AB450008373A0008F7
:10001000A9450008D5050008614D00080000000052
:10002000000000000000000000000000B101000816
:1000300095060008000000000D020008C9450008F0
:100040008B0200088B0200088B0200088B0200085C
:100050008B0200088B0200088B0200088B0200084C
:100060008B0200088B0200088B0200088B0200083C
:100070008B0200088B0200088B0200088B0200082C
:10008000D90500088B0200088B0200080000000060
:100090000000000000000000000000008B020008CB
:1000A000854600088B0200088B0200088B020008BE
:1000B000914600088B0200088B020008393A0008BC
:1000C0008B0200088B0200088B020008AD45000877
:1000D0008B0200088B0200088B0200080000000061
:1000E000970600088B0200088B0200080000000041
:1000F0000000000000000000000000008B0200086B
:10010000000000008B0200089D4600088B020008DA
:1001100000000000000000000000000000000000DF
:10012000E50500088B0200088B0200088B0200081E
:100130008B0200080000000000000000000000002A
:100140000000000000000000000000008B0200081A
:100150008B0200088B0200088B0200088B0200084B
:100160008B0200088B020008000000000000000065
:10017000000000000000000000000000000000007F
:10018000000000008B0200080000000000000000DA
:100190008B0200088B020008DFF810D000F004F991
:1001A00000480047DD4F0008AFF30080707D00205D
:1001B0002C4B19680868B0E8F04F80F30988BFF34A
:1001C0006F8F4FF0000080F311887047000000002F
:1001D00008480068006880F308884FF0000080F34A
:1001E000148862B661B6BFF34F8FBFF36F8F00DF25
:1001F00000BF00BF08ED00E0DFF80C00016841F42B
:1002000070010160704700BF88ED00E0EFF30980E6
:10021000BFF36F8F134B1A681EF0100F08BF20ED4D
:10022000108A20E9F04F106009B44FF0500080F3BD
:100230001188BFF34F8FBFF36F8F05F0CFFE4FF0E4
:10024000000080F3118809BC19680868B0E8F04F15
:100250001EF0100F08BFB0EC108A80F30988BFF3BE
:100260006F8F704740000020EFF30580704700005B
:100270000648804706480047FEE7FEE7FEE7FEE740
:10028000FEE7FEE7FEE7FEE7FEE7FEE7754600084D
:10029000990100082DE9F05F0546002092469B4633
:1002A00088460646814640241BE02846414647468C
:1002B000224600F069F853465A46C01A914110D3BD
:1002C00011461846224600F050F82D1A67EB010837
:1002D0004F4622460120002100F047F817EB0009A5
:1002E0004E41201EA4F10104DFDC484631462A4677
:1002F0004346BDE8F09F40EA01039B0703D009E0B5
:1003000008C9121F08C0042AFAD203E011F8013B01
:1003100000F8013B521EF9D27047D2B201E000F85A
:10032000012B491EFBD270470022F6E710B5134699
:100330000A4604461946FFF7F0FF204610BD30B5C7
:100340000B46014600202022012409E021FA02F593
:100350009D4205D303FA02F5491B04FA02F528442D
:10036000151EA2F10102F1DC30BD202A04DB203A87
:1003700000FA02F1002070479140C2F1200320FAF8
:1003800003F3194390407047202A04DB203A21FAF6
:1003900002F00021704721FA02F3D040C2F120029E
:1003A0009140084319467047064C074D06E0E06847
:1003B00040F0010394E8070098471034AC42F6D3AC
:1003C000FFF7EEFE706B0008906B000810B5014659
:1003D000806B026C12F0500F05D0026CD20626D54D
:1003E00000F0C4FA10BD016C41F4007101640168B1
:1003F0008A6812F0405F17D1027EAAB9CA6A12F465
:10040000700F02D08A6852050ED44A6822F020028A
:100410004A60016C21F480710164016CC90403D449
:10042000016C41F00101016400F09EFA10BD806B87
:10043000C26CBDE810400846104710B5806B4021E3
:100440000164416C41F00401416400F08FFA10BD79
:1004500010B5806B00F089FA10BD000010B504469D
:100460004B48416821F44031416041686268114362
:1004700041602068416821F48071416020684168D2
:10048000226941EA022141602068416821F04071FF
:10049000416020684168A26811434160206881681A
:1004A00021F40061816020688168E2681143816005
:1004B000A06A6FF07061C8422068816821F07061A5
:1004C0008160206881680CD0A26A11438160206835
:1004D000816821F04051816020688168E26A11439F
:1004E00001E021F0405181602068816821F0020123
:1004F000816020688168227E41EA4201816094F82F
:10050000200000283FD0606A401E072804D940F22E
:10051000A67120A004F032FD2068416841F400611A
:1005200041602068416821F4604141602068416871
:10053000264B626A03EB4232114341602068C16A74
:1005400021F47001C1622068C16AA28B204B03EBC9
:1005500002521143C1622068816821F400718160F8
:100560002068816894F8302041EA42218160206847
:10057000816821F48061816020688168626941EA54
:100580008221816010BD2068416821F40061D4E7B8
:10059000002301402E2E2F447269766572732F530B
:1005A000544D3332463478785F48414C5F44726929
:1005B0007665722F5372632F73746D33326634789D
:1005C000785F68616C5F6164632E630000E0FFFF29
:1005D0000000F0FFFEE70000014800F0FBBB000058
:1005E000F4020020014800F0F5BB00009402002056
:1005F00001681823CAB2103AB2FBF3F2054B6FF34D
:100600000901032A9B5CC36500D9091D8165084661
:1006100070470000506B000810B5014600208B6940
:100620008A6A4FF0C07453B1B3F5005F15D072B150
:10063000012A0CD0022A0AD0032A09D104E01AB1F7
:10064000012A06D0022A03D1C96AC90100D50120B6
:1006500010BDC96AA142FAD010BD002AF7D0012A04
:10066000F2D0022AF3D0032AF3D010BD30B50468CB
:10067000256825F480252560046863608368402B25
:10068000036803D099600068C26030BD9A6000685A
:10069000C16030BD70474FF4005000F06FBE72B6BD
:1006A000FEE77047704700001CB51C491F20CDE9CC
:1006B00000014FF480640023224619A11C4805F074
:1006C000B7FF012803D074211AA004F057FC134986
:1006D0001D20091DCDE90001002322461CA1204850
:1006E00005F0A6FF012803D07F2112A004F046FCEC
:1006F0000A491A200831CDE9000100234FF4807225
:1007000018A11C4805F094FF012805D0BDE81C4045
:100710008A2108A004F032BC1CBD00001800002093
:100720005441534B31202D204D4355205042000061
:10073000A94C00082E2E5C436F72655C5372635C9B
:100740006672656572746F735F696D706C2E63009D
:100750005461736B32202D2041444350574D0000AB
:10076000DD4C00085461736B33202D204D43554CF4
:1007700045440000754C0008F8B500270546009771
:100780000868664E0C46122806D9B04204D040F2E2
:10079000896163A004F0F2FB6068401E0F2804D951
:1007A00040F28A615EA004F0E9FBA06890B10128E4
:1007B00010D002280ED003280CD004280AD0052817
:1007C00008D0062806D0072804D040F28B6154A038
:1007D00004F0D4FB95F83C00012819D0012085F8DD
:1007E0003C00206807212A68092813D9D3680A38F1
:1007F00000EB400081408B43D3602178A0680A3928
:1008000001EB410188402968CA681043C86010E0C4
:100810000220F8BD136900EB400081408B43136157
:100820002078A16800EB40008140286802691143EC
:10083000016160681F21072813D22A68536B401E8C
:1008400000EB800081408B43536321792088491E4F
:1008500080B201EB8101884029684A6B10434863EC
:1008600027E02A680D2812D2136BC01F00EB80000E
:1008700081408B43136321792088C91F80B201EB2B
:100880008101884029680A6B1043086311E0D36A2C
:100890000D3800EB800081408B43D36221792088A2
:1008A0000D3980B201EB810188402968CA6A104382
:1008B000C8622A492A6828488A420AD12268122A2C
:1008C00007D1426822F400024260426842F480028A
:1008D00042602A688A421CD12168B14201D01129A4
:1008E00017D1416821F480014160416841F4000161
:1008F00041602068B0420CD119481A490068B0FB29
:10090000F1F000EB8000400000E0401E0090002865
:10091000FBD185F83C700020F8BD000012000010EB
:100920002E2E2F447269766572732F53544D3332D5
:10093000463478785F48414C5F4472697665722F1F
:100940005372632F73746D3332663478785F6861E5
:100950006C5F6164632E630000230140002001404E
:100960003C00002040420F00704770477047000075
:100970002DE9F04704004FF000057DD06F49206855
:10098000884204D040F243116DA004F0F7FA606889
:1009900068B1B0F5803F0AD0B0F5003F07D0B0F5A0
:1009A000403F04D04FF4A27165A004F0E7FAA068BC
:1009B0004FF080774FF000784FF0407950B1B84257
:1009C00008D0404506D0484504D040F245115CA00F
:1009D00004F0D4FA206930B1012804D04FF4A37197
:1009E00057A004F0CBFA207E30B1012804D040F2A9
:1009F000471153A004F0C2FA5F4EA06A80B3B84218
:100A00002ED040452CD048452AD0B0F1806F27D059
:100A1000B0F1A06F24D0B0F1C06F21D0B0F1E06F81
:100A20001ED0B0F1006F1BD0B0F1106F18D0B0F134
:100A3000206F15D0B0F1306F12D0B0F1406F0FD0F1
:100A4000B0F1506F0CD0B0F1606F09D0B0F1706FA1
:100A500006D0B04204D04FF4A47139A004F08EFA4D
:100A6000E06838B1B0F5006F04D040F2491134A00D
:100A700004F084FAE06900E03DE0401E0F2804D94C
:100A80004FF4A5712EA004F079FA94F8300030B13B
:100A9000012804D040F24B1129A004F06FFA6069DC
:100AA000012807D030B1022804D04FF4A67124A049
:100AB00004F064FA94F8200030B1012804D040F228
:100AC0004D111FA004F05AFAA06AB0420FD0E06A9C
:100AD00068B1B0F1805F0AD0B0F1005F07D0B0F12B
:100AE000405F04D040F2511115A004F047FA206C89
:100AF000002618B108E00120BDE8F087204600F08C
:100B00003DF8666484F83C60206CC00610D4206C0C
:100B100020F4885040F0020020642046FFF79EFC3D
:100B20006664206C20F0020040F00100206400E0C8
:100B3000012584F83C602846DEE7000000200140E3
:100B40002E2E2F447269766572732F53544D3332B3
:100B5000463478785F48414C5F4472697665722FFD
:100B60005372632F73746D3332663478785F6861C3
:100B70006C5F6164632E63000100000F70B586B086
:100B8000064614216846FFF7CFFB1E4930688842AD
:100B900035D11D480025016841F48071016000686D
:100BA00000F48070059018481438016841F0010184
:100BB00001600068694600F0010005900120009086
:100BC0000320CDE90105114800F0E4FB114C104869
:100BD000C4E900050015A560C4E903504000606148
:100BE0008000A0614011E0614002C4E90805204690
:100BF00000F0C0F908B1FFF752FDB463A66306B078
:100C000070BD000000200140443802400000024056
:100C10001064024094020020F8B5002504460095B7
:100C2000007E16460F4630B1012804D04FF4AB6168
:100C300048A004F0A3F9E06A68B1B0F1805F0AD07F
:100C4000B0F1005F07D0B0F1405F04D040F25951DD
:100C500040A004F093F994F83C00012807D001204B
:100C600084F83C0020688168C90702D011E00220A6
:100C7000F8BD816841F00101816044484449006841
:100C8000B0FBF1F000EB400000E0401E00900028B7
:100C9000FBD120688168C90503D5816821F4807182
:100CA000816020688168C90749D0216C40F20162E7
:100CB000914341F4807121644068400505D5206C62
:100CC00020F4005040F480502064206CC00404D50F
:100CD000606C20F00600606400E0656484F83C50BD
:100CE000A16B2D482B4DC863A16B2C480864A16BE8
:100CF0002B48C86421686FF02200086020684168B2
:100D000041F0806141602068816841F480718160B8
:100D1000216833463A464C31A06B00F09BFA686874
:100D2000C006206802D01F49884210D1816811F0A6
:100D3000405F0CD1816841F08041816007E0206C08
:100D400040F010002064606C40F0010060640020FE
:100D5000F8BD00002E2E2F447269766572732F53F2
:100D6000544D3332463478785F48414C5F44726961
:100D70007665722F5372632F73746D3332663478D5
:100D8000785F68616C5F6164632E63003C000020E3
:100D900040420F0000230140CD0300085104000829
:100DA0003B0400080020014090F83510022903D0D0
:100DB0008021416501207047052180F835100068C9
:100DC000016821F0010101600020704790F83500B2
:100DD000704700002DE9F84304464FF00009CDF8B4
:100DE000009063484FF41651A56D0068B0FBF1F711
:100DF0002E6894F85C10082000FA01F131420FD0FF
:100E000021680A6852070BD50A6822F004020A60BA
:100E100094F85C108840A860606D40F00100606547
:100E200094F85C104FF0010808FA01F0304208D045
:100E300021684969090604D5A860606D40F0020088
:100E4000606594F85C1004208840304208D0216826
:100E50000968890704D5A860606D40F004006065EA
:100E600094F85C1010208840304218D0216809683E
:100E7000090714D5A86020680168490304D50068F3
:100E8000000308D5A16C07E00168C90503D4016817
:100E900021F008010160216C09B12046884794F8CF
:100EA0005C1020208840304231D021680968C90692
:100EB0002DD5A86094F8350005282068016806D073
:100EC000490347D5006800031DD4616C1CE021F084
:100ED000160101602068416921F080014161206CA8
:100EE00008B9A06C20B12068016821F008010160F8
:100EF00094F85C103F208840A86084F8349084F80F
:100F00003580216D1FE0E16B09B120468847606D97
:100F100000282BD0606DC00714D0052084F8350060
:100F20002068016821F0010101600098401C0090D8
:100F3000B84203D820680068C007F6D184F834901E
:100F400084F83580E16C002910D001B02046BDE85E
:100F5000F04308470168C905D5D4016821F01001A4
:100F6000016084F8349084F83580CCE7BDE8F883DC
:100F70003C0000202DE9F041044600F0D5FB054679
:100F8000002C7CD0A249206888423ED0A04918316C
:100F900088423AD09E493031884236D09C49483107
:100FA000884232D09A49603188422ED098497831AF
:100FB00088422AD096499031884226D09449A83157
:100FC000884222D0934988421FD0924918318842E2
:100FD0001BD090493031884217D08E494831884221
:100FE00013D08C49603188420FD08A4978318842C9
:100FF0000BD088499031884207D08649A831884271
:1010000003D0B82184A003F0B9FF6068C0B1B0F18B
:10101000007F15D0B0F1806F12D0B0F1C06F0FD04B
:10102000B0F1006F0CD0B0F1206F09D0B0F1406F7B
:1010300006D0B0F1606F03D0B92177A003F09EFF16
:10104000A06838B1402805D0802803D0BA2172A00A
:1010500003F094FFE068B0F5007F04D018B1BB2125
:101060006DA003F08BFF2069B0F5806F04D018B13C
:10107000BC2169A003F082FF606958B100E071E013
:10108000B0F5006F06D0B0F5805F03D0BD2162A03F
:1010900003F074FFA06948B1B0F5005F06D0B0F569
:1010A000804F03D0BE215CA003F068FFE06940B12F
:1010B000B0F5807F05D0202803D0BF2156A003F0D3
:1010C0005DFF206A60B1B0F5803F09D0B0F5003F08
:1010D00006D0B0F5403F03D0C0214FA003F04EFF33
:1010E000606A002832D0042806D0C1214AA003F04B
:1010F00045FF606A002829D0A06A48B1012807D0BE
:10110000022805D0032803D0C62143A003F036FFF0
:10111000E06A60B1B0F5000F09D0B0F1807F06D071
:10112000B0F1C07F03D0C7213BA003F027FF206BA5
:1011300060B1B0F5001F09D0B0F5800F06D0B0F552
:10114000C00F03D0C82134A003F018FF002684F894
:101150003460022084F835002068016821F0010124
:1011600001600EE00120BDE8F08100BF00F0DCFA74
:10117000401B052805D920206065032084F8350030
:10118000F1E720680068C007F0D122681168304894
:101190000140D4E901031843D4E903352B43184334
:1011A00063691843A3691843E3691843236A184322
:1011B0000843616A042903D1D4E90B131943084396
:1011C000106020684069656A20F0070128460D43D9
:1011D000012704280CD1A06A0543E06A40B12046EB
:1011E000FFF71AFA20B14020606584F83570B9E73E
:1011F000206845612046FFF7FBF994F85C203F2109
:1012000091408160666584F835700020ABE700008E
:1012100010600240106402402E2E2F4472697665E1
:1012200072732F53544D3332463478785F48414CB3
:101230005F4472697665722F5372632F73746D33D6
:1012400032663478785F68616C5F646D612E63002C
:101250003F8010F02DE9F04789460446876D002550
:10126000581E4FF6FF711E469046884204D34FF435
:10127000E6711CA003F082FE94F8340001280DD022
:10128000012084F8340094F835100020012907D09B
:1012900084F8340002252846BDE8F0870220FBE7E9
:1012A000022184F83510606533464246494620469F
:1012B000FFF7DCF994F85C103F208840B8602068A4
:1012C000016841F016010160206C20B120680168BE
:1012D00041F0080101602068016841F001010160EE
:1012E000D9E700002E2E2F447269766572732F5352
:1012F000544D3332463478785F48414C5F447269CC
:101300007665722F5372632F73746D33326634783F
:10131000785F68616C5F646D612E63001CB5B0F529
:10132000005F24D112490868401C08600020019029
:10133000086801AAC3070F48006804D00092002380
:101340000122022106E00968C90710D1009201229A
:101350000023114605F0C4F90198002807D006497A
:101360004FF080500860BFF34F8FBFF36F8F1CBDED
:10137000000000201800002004ED00E0044910B532
:101380000A68024202D00860FFF7C8FF10BD0000E3
:10139000143C01402DE9F84FDFF848B20D460446F1
:1013A000584512D0904884420FD0904884420CD0C7
:1013B0008F48844209D08F48844206D08E488442A8
:1013C00003D0AC218DA003F0D9FD28680104090CDD
:1013D00001D0000C03D0AD2188A003F0CFFD6868D8
:1013E000F8B101281DD011281BD0022819D01228CD
:1013F00017D09149884214D09049884211D0904921
:1014000088420ED08F4988420BD08F49884208D03D
:101410008E49884205D0032803D0AE2177A003F07F
:10142000ADFDA86838B1012805D0022803D0AF214E
:1014300072A003F0A3FD00264FF0010A4FF003094C
:101440000AFA06F02F688046074047457ED1287982
:1014500000F00300012801D002281DD1E86848B13E
:10146000012807D0022805D0032803D0C12163A09A
:1014700003F084FDA068720009FA02F18843E9686C
:1014800091400143A1606068297920EA0800C1F316
:101490000011B140014361602879C043800708D042
:1014A000E168720009FA02F08143A868904008439D
:1014B000E060287900F00300022828D12869C8B12B
:1014C000092817D0012815D0022813D0042811D0DC
:1014D00005280FD006280DD007280BD0082809D0E2
:1014E0000A2807D00C2805D00F2803D0DC2143A000
:1014F00003F044FDF00804EB8002106A7107CB0E84
:101500000F2199408843296999400143116220685D
:10151000720009FA02F18843297901F00301914030
:10152000014321606868C00055D54948016841F40D
:1015300080410160006826F0030100F480400090C3
:1015400044480B18D3F80808B10700E043E00A0F3D
:101550000F21914088435C4501D1002114E02249CC
:101560008C4201D101210FE020498C4201D102219E
:101570000AE01F498C4201D1032105E01D498C423C
:1015800001D1042100E0072191400143C3F808186C
:10159000314908686A68B843D20300D53843086007
:1015A0002D49091D08686A68B843920300D538437D
:1015B00008602949083108686A68B843D20200D532
:1015C0003843086024490C3108686A68B8439202BD
:1015D00000D538430860761C102EFFF431AFBDE80B
:1015E000F88F0000000002400004024000080240A2
:1015F000000C024000100240001C02402E2E2F441E
:101600007269766572732F53544D3332463478784D
:101610005F48414C5F4472697665722F5372632F45
:1016200073746D3332663478785F68616C5F6770AD
:10163000696F2E63000000000000111000002110EF
:1016400000003110000012100000221000003210C3
:101650004438024000300140003C014070B50C00AD
:10166000054604D14FF4DA7105A003F087FC6969DF
:1016700024EA0100214040EA0140A86170BD000059
:101680002E2E2F447269766572732F53544D333268
:10169000463478785F48414C5F4472697665722FB2
:1016A0005372632F73746D3332663478785F686178
:1016B0006C5F6770696F2E630000000070B515469F
:1016C0000C00064604D140F29B1108A003F056FC22
:1016D00045B1012D04D04FF4CE7104A003F04EFCAF
:1016E000B46170BD2004B06170BD00002E2E2F4487
:1016F0007269766572732F53544D3332463478785D
:101700005F48414C5F4472697665722F5372632F54
:1017100073746D3332663478785F68616C5F6770BC
:10172000696F2E6300000000014880687047000068
:1017300030000020704770472DE9F0410268002416
:101740005168C76A90F83E5090F83D60102D1CD04B
:10175000402D1AD0036C002B7ED053694FF0280522
:10176000DB439F0779D4CF43BF0576D4016C01B129
:10177000946990F83D3000219D430B466ED0C91E00
:10178000516180F83C30BDE8F081946953694FF4B1
:101790002A0CDB435FEAC37E4FF02A4604D067453C
:1017A000F1D0B742EFD010E0CF43BF050DD4C16AEE
:1017B000614501D1012103E0C16AB14201D1082193
:1017C000C162BDE8F04102F047BC1E0715D4CE430C
:1017D000B60512D4416CC9B21161416B09B1C96B34
:1017E00029B9816B0029CED0C96B0029CBD0006804
:1017F000416841F400614160C5E79E0706D4CE43CD
:10180000B60503D4BDE8F04102F09ABBE443526848
:1018100064074FEA02521BD4002AB4DB1A0608D42C
:10182000CA43520505D45A0705D5BDE8F04102F078
:101830002BBB5A07A7D4C9438905A4D4102D03D0C4
:10184000BDE8F04102F04EBCBDE8F04102F0E2BA62
:10185000002A98DB5A0602E014E028E014E008D4DD
:10186000CA43520505D45A0705D5BDE8F04102F038
:101870005DBA5A0787D4C943890584D4BDE8F041CD
:1018800002F0EAB9946968E7556825F48065556007
:10189000E243540700D50121120601D5828900E0F8
:1018A000028B80F83C3092B2FFF745FF6BE7DC0615
:1018B00006D4CC43A40503D4BDE8F04102F062BCD9
:1018C000212E27D0292E25D05C0655D4CC43640583
:1018D00052D45B0752D590F83D10438D002B8BD02E
:1018E0001269436A1A70426A521C4262428D521E49
:1018F0004285428D002AD9D12A29D7D101684A6868
:1019000022F480624A602221016380F83D5000F099
:10191000CFF938E71C0623D4CC43640520D45B07F9
:1019200020D590F83D10438D002BBFD0436A1B7823
:101930001361426A521C4262428D521E4285428DA0
:10194000002AB3D12929B1D101684A6822F4806202
:101950004A602121016380F83D5000F0AAF912E7A6
:101960005B07A3D4C9438905A0D4418D00299DD02C
:10197000416A097811610AE05B0797D4C943890578
:1019800094D4418D002991D01169426A1170416A45
:10199000491C4162418D491E4185F4E670470000B3
:1019A00070B504007DD08A49206888420AD08949F0
:1019B000884207D08849884204D040F2BF1187A0EE
:1019C00003F0DCFA60689349401E884204D94FF462
:1019D000E07182A003F0D2FAA0684FF4804530B1E4
:1019E000A84204D040F2C1117CA003F0C7FAE0681D
:1019F000800A04D04FF4E17178A003F0BFFA2069A7
:101A0000A84207D0B0F5404F04D040F2C31173A0F4
:101A100003F0B4FA606930B1012804D04FF4E271E8
:101A20006EA003F0ABFAA06930F0FE0004D040F2E3
:101A3000C5116AA003F0A2FAE06930B1402804D0D1
:101A40004FF4E37165A003F099FA206A30B1802861
:101A500004D040F2C71161A003F090FA94F83D0061
:101A6000002520B984F83C50204600F0E3F82420FB
:101A700084F83D002068016821F0010101602068C0
:101A8000016841F4004101602068016821F40041CF
:101A9000016000F089FB604A6168914202D85F49A9
:101AA00001E002E05E49884201D2012070BD5D493B
:101AB0002368B0FBF1F15E6826F03F060E435E60DE
:101AC0006368934206D94FF4967359434FF47A737F
:101AD000B1FBF3F12368491C1E6A26F03F0631432F
:101AE00019626168914210D84900401EB0FBF1F2C2
:101AF000521CC2F30B02042A01D2042022E0B0FBE4
:101B0000F1F0401CC0F30B001CE0A368F3B301EB41
:101B1000C10202EB0116421EB2FBF6F2521C42F465
:101B20008042120549D093B301EBC10202EB0111CF
:101B3000401EB0FBF1F0401CC0F30B0040F48040AD
:101B400040F400402168CA694CF6FF739A43104381
:101B5000C861D4E9071001432068026822F0C0027E
:101B600011430160D4E9030101432068826848F20F
:101B7000FF339A4311438160D4E90501084321688A
:101B8000CA6822F0FF021043C86001E00EE016E0D0
:101B90002068016841F0010101602564202084F87B
:101BA0003D00256384F83E50002070BD01EB4106E6
:101BB000421EB2FBF6F2521CB3E70120C2E701EB72
:101BC0004101401EB0FBF1F0401CC0F30B00B7E731
:101BD0000054004000580040005C00402E2E2F446E
:101BE0007269766572732F53544D33324634787868
:101BF0005F48414C5F4472697665722F5372632F60
:101C000073746D3332663478785F68616C5F693203
:101C1000632E63007F1A0600A086010080841E00E8
:101C200000093D0040420F00704770477047704701
:101C30007047000010B586B0044614216846FEF7D0
:101C400073FB18492068884229D11748016841F080
:101C5000020101600068694600F0020005904FF43F
:101C60004070009012200190012002900320039008
:101C7000042004900D48FFF78DFB0B4810300168DD
:101C800041F4001101600068012200F40010059089
:101C900006211F2000F0B8F81F2000F083F806B0DE
:101CA00010BD0000005400403038024000040240E3
:101CB000704770470248816802781144816070471C
:101CC000300000200B4810B5016841F4007101603C
:101CD000016841F480610160016841F48071016034
:101CE000032000F0E1F8002000F006F800F03EF8D4
:101CF000002010BD003C024010B5014688B0002213
:101D00001C2000F081F81C2000F04CF8144800243E
:101D1000016841F001010160006805A900F00100BF
:101D20000690684600F020FA00F03EFA0D494000A7
:101D3000B0FBF1F10C484FF08042491E026040F2C6
:101D4000E732C0E90324C0E9011400F057FF10B1E5
:101D5000012008B010BD044801F01EF8F9E70000AA
:101D60004038024040420F00540300200C4882B02B
:101D7000016841F480410160006800F480400090F7
:101D80000748001F016841F080510160006800228F
:101D900000F0805000900F21901E02B000F034B887
:101DA0004438024010B5040003D5BE2107A003F05B
:101DB000E5F8002C09DB04F01F01012088406109CF
:101DC000890001F1E021C1F8000110BD2E2E2F4441
:101DD0007269766572732F53544D33324634787876
:101DE0005F48414C5F4472697665722F5372632F6E
:101DF00073746D3332663478785F68616C5F636FDB
:101E0000727465782E63000070B515460C46064660
:101E1000102A03D3AA2114A003F0B0F8102C03D386
:101E2000AB2111A003F0AAF81E480068C0F30223FA
:101E3000C3F107022046042A00D90422191D0729EC
:101E400001D2002300E0DB1E012404FA02F1491E46
:101E5000014099409C40641E2C4021433046BDE81F
:101E6000704002F08FBF00002E2E2F4472697665FD
:101E700072732F53544D3332463478785F48414C57
:101E80005F4472697665722F5372632F73746D337A
:101E900032663478785F68616C5F636F72746578FE
:101EA0002E6300000CED00E010B5044607280BD0AF
:101EB000062C09D0052C07D0042C05D0032C03D008
:101EC000922108A003F05AF8154904F007020868A7
:101ED0004FF6FF03184040EA0220124A1043086000
:101EE00010BD00002E2E2F447269766572732F5339
:101EF000544D3332463478785F48414C5F447269C0
:101F00007665722F5372632F73746D333266347833
:101F1000785F68616C5F636F727465782E63000030
:101F20000CED00E00000FA052DE9F0470E46040034
:101F30007DD02068401E0E2804D94FF4177178A078
:101F400003F01CF896B1012E10D0022E0ED0032EF5
:101F50000CD0042E0AD0052E08D0062E06D0072E4F
:101F600004D040F25D216EA003F008F8DFF8E881AC
:101F7000D8F80000F7B200F00700B04207D288F8A6
:101F80000070D8F8000000F00700B0424FD1206880
:101F9000724D810729D5400703D5286840F4E050E9
:101FA00028602078000703D5286840F46040286046
:101FB000A068A0B1802812D0902810D0A0280ED000
:101FC000B0280CD0C0280AD0D02808D0E02806D0ED
:101FD000F02804D04FF4207151A002F0CFFF286800
:101FE000A16820F0F000084328602078C00743D0A3
:101FF000DFF868916068A9F1080988B1012822D04A
:10200000022824D0032822D040F2872144A002F0E5
:10201000B5FF6068012816D0022818D0032816D012
:10202000D9F800008007002833DA286800E030E0A3
:10203000616820F0030008432860FFF775FB8146C4
:1020400041F2883A11E0D9F800008003EBE7D9F8B3
:1020500000008001E7E700BFFFF766FBA0EB090186
:10206000514502D90320BDE8F0872868616800F077
:102070000C00B0EB810FEFD1D8F80010404601F012
:102080000701B14207D90770006800F00700B042AD
:1020900001D00120E7E720784FF4805640074FF445
:1020A000A0574FF4C0584FF4E05914D5E06860B120
:1020B000B0420AD0B84208D0404506D0484504D0C6
:1020C00040F2C52116A002F059FF2868E16820F40B
:1020D000E050084328602078000715D5206960B1DA
:1020E000B0420AD0B84208D0404506D0484504D096
:1020F0004FF433710AA002F041FF2868216920F4EF
:10210000604040EAC100286000F05EF82968144A87
:10211000C1F30311515CC840124908600020A2E7D6
:102120002E2E2F447269766572732F53544D3332BD
:10213000463478785F48414C5F4472697665722F07
:102140005372632F73746D3332663478785F6861CD
:102150006C5F7263632E6300003C024008380240EB
:10216000586B00083C0000200F2202600C4A1368E4
:1021700003F003034360136803F0F0038360136804
:1021800003F4E053C36012684FF4E05303EAD20251
:1021900002610448006800F0070008607047000012
:1021A00008380240003C02400448054900680968BC
:1021B000044AC1F38221515CC84070473C000020B2
:1021C00008380240686B0008154810B5006810F028
:1021D0000C02144813D01449042A0FD0082A0ED137
:1021E0000F4C241F2268236802F03F025B0207D5D0
:1021F0002068C0F38810A0FB010106E0084610BD6E
:102200002168C1F38811A1FB00010023FEF742F809
:102210002168C1F30141491C4900B0FBF1F010BD38
:10222000083802400024F40040787D012DE9F84F81
:1022300004007DD020680F2803D9E821F7A002F020
:102240009DFE2078DFF80C94C007A9F1040555D055
:1022500060684FF480364FF4A02738B1B04205D003
:10226000B84203D0ED21EDA002F088FEF948001D30
:102270000168C1F38101012908D00068C0F3810021
:1022800002280AD1D9F80000400206D52868800348
:1022900034D560680028CCD030E06068B04203D10B
:1022A000286840F480300CE0B842286803D140F43C
:1022B00080202860F4E720F480302860286820F42B
:1022C00080202860606860B1FFF72EFA064604E0BF
:1022D000FFF72AFA801B64287ED828688003F7D588
:1022E0000CE0FFF721FA064605E000BFFFF71CFAF5
:1022F000801B6428F0D828688003F7D42078DFF8A2
:10230000588380074FF0000A56D5E06830B10128A5
:1023100004D040F21F11C1A002F030FE20691F2836
:1023200004D94FF49071BDA002F028FEC94800E026
:1023300092E0001D016811F00C0F08D00068C0F396
:102340008100022810D1D9F8000040020CD428687E
:10235000800702D5E06801287ED12868216920F035
:10236000F80040EAC10017E0E068B8B10120C8F801
:102370000000FFF7D9F9064605E000BFFFF7D4F9E2
:10238000801B0228A8D828688007F7D5286820F085
:10239000F801206941EAC00028600DE0C8F800A0FB
:1023A000FFF7C2F9064604E0FFF7BEF9801B0228DA
:1023B00092D828688007F7D4207800072ED5A54E3C
:1023C000A64F60697036D0B1012808D04FF4B071C3
:1023D00092A002F0D3FD00E04BE1606978B10120EA
:1023E0003860FFF7A1F9074605E000BFFFF79CF949
:1023F000C01B0228C6D830688007F7D50EE0C7F8A2
:1024000000A0FFF791F9074605E000BFFFF78CF940
:10241000C01B0228B6D830688007F7D42078400760
:1024200076D5A068002740B1012806D0052804D041
:102430004FF4C67179A002F0A1FDDFF818B20BF1DC
:102440003C0BDBF80000C0000DD4DBF8001041F0BD
:102450008051CBF8001000E038E1DBF800000127E4
:1024600000F0805000907E4E3068C00511D4306876
:1024700040F480703060FFF757F9009006E000BF2D
:10248000FFF752F90099401A022891D83068C00528
:10249000F6D5704EA0686C3601280FD0052830683C
:1024A00010D020F001003060306820F0040030606F
:1024B000A068B8B1FFF738F900900FE0306840F03D
:1024C0000100F4E740F004003060F7E7FFF72CF973
:1024D0000099411A41F2883081428BD830688007D8
:1024E000F4D50EE0FFF720F9009007E0FFF71CF9A4
:1024F0000099411A41F2883081428BD830688007B8
:10250000F4D42FB1DBF8001021F08051CBF800108B
:10251000A069002876D0012809D0022807D040F20F
:10252000CF113EA002F02AFDA0690028F2D0494850
:10253000001D0068C0F381000228A0696DD0022848
:1025400005D0C8F860A0FFF7EFF8044694E0E06912
:1025500038B1B0F5800F04D04FF4EC712FA002F029
:102560000DFD206A3F2804D940F2D9112BA002F0BA
:1025700005FD606A3238B0F5BF7F04D94FF4ED71C4
:1025800026A002F0FBFCA06A02280AD0042808D08A
:10259000062806D0082804D040F2DB111FA002F064
:1025A000EDFCE06A801E0D2804D94FF4EE711BA0EB
:1025B00002F0E4FC4746C8F860A0FFF7B5F806460D
:1025C00005E000BFFFF7B0F8801B022851D828684B
:1025D0008001F7D4D4E907010843A16A214A4908D8
:1025E00002EB0141626A41EA8211084394F82C101F
:1025F00040EA0161C9F8001001203866FFF794F83D
:10260000044606E064E000BFFFF78EF8001B0228D6
:102610002FD828688001F7D55AE031E02E2E2F44BC
:102620007269766572732F53544D3332463478781D
:102630005F48414C5F4472697665722F5372632F15
:1026400073746D3332663478785F68616C5F72637F
:10265000632E63000438024000004742800E474268
:10266000007000400000FFFFFFF75EF8001B02282B
:1026700002D90320BDE8F88F28688001F4D427E050
:102680000128F7D0D9F80000E26900F480019142F6
:102690001CD1226A00F03F01914217D147F6C07168
:1026A000626A0140B1EB821F10D1A26A4FF0FF3382
:1026B00000F4403103EB5202B1EB024F06D194F823
:1026C0002C1000F07060B0EB016F01D00120D1E759
:1026D0000020CFE77047000038B5016804464A681B
:1026E0008868C043430606D5C30704D1D3435B06BD
:1026F00001D4216C05E0830708D4D3431B0605D41D
:10270000616C01B02046BDE830400847830603D520
:10271000430601D5C30551D4D3439B064ED443068B
:102720000AD494F85130032B49D0636D43F004036D
:102730006365CB688B680093830609D4636D43F0AF
:10274000010363658B6800930B6823F040030B6003
:10275000C00506D4606D40F00800606520688068A0
:102760000090606D002829D02068416821F0E001C8
:102770004160012084F85100900701D4D00722D095
:102780002068416821F003014160114DE06C40B1C7
:102790000565E06CFEF708FB18B1606D40F0400085
:1027A0006065A06C002809D00565A06CFEF7FCFAF6
:1027B000002803D0606D40F04000606538BDC868F7
:1027C0008868009038BD2046FFF784FF38BD0000C0
:1027D000B945000870B504007ED08349206888425E
:1027E00010D0824988420DD0814988420AD081495F
:1027F000884207D08049884204D04FF4A1717FA05D
:1028000002F0BCFB60684FF4827630B1B04204D075
:1028100040F2431179A002F0B1FBA06850B1B0F5CD
:10282000806F07D0B0F5004F04D04FF4A27173A0B1
:1028300002F0A4FBE068B0F5006F05D020B140F2D3
:1028400045116EA002F09AFBA069B0F5007F08D098
:1028500038B1B0F5802F04D04FF4A37167A002F017
:102860008DFBE06990B1082810D010280ED01828F0
:102870000CD020280AD0282808D0302806D03828A4
:1028800004D040F247115DA002F078FB206A30B11D
:10289000802804D04FF4A47158A002F06FFB606A46
:1028A000002548B3102806D040F2491153A002F089
:1028B00065FB606A00B3E069A0B1082812D0102857
:1028C00010D018280ED020280CD028280AD0302864
:1028D00008D0382806D000E00CE040F25B1147A099
:1028E00002F04CFB25616561A56294F85100002857
:1028F00030D034E0012070BD206930B1022804D00E
:102900004FF4A6713DA002F039FB606930B1012897
:1029100004D040F24D1139A002F030FB6068B042A3
:1029200016D1E0690028DFD00828DDD01028DBD0E0
:102930001828D9D02028D7D02828D5D03028D3D0CF
:102940003828D1D040F251112CA002F017FBCBE770
:10295000E561C9E784F85050204600F06BF802208A
:1029600084F851002068016821F040010160A088CE
:10297000218900F4827001F404410843A18901F423
:1029800000610843217C01F002010843217D01F030
:1029900001010843218B01F400710843217F01F0FC
:1029A0003801084394F8201001F080010843218D7C
:1029B00001F40051084321680860A069042101EA7C
:1029C000104094F8241001F0100108432168486079
:1029D0002068C16921F40061C1616565012084F846
:1029E0005100002070BD0000003001400038004060
:1029F000003C004000340140005001402E2E2F4486
:102A00007269766572732F53544D33324634787839
:102A10005F48414C5F4472697665722F5372632F31
:102A200073746D3332663478785F68616C5F73708D
:102A3000692E6300F0B587B0044614216846FDF79F
:102A400073FC2049206888423AD11F48002401685D
:102A500041F480510160006800F4805005901A48EC
:102A60001438016841F001010160016801F00101C1
:102A70000591016841F0020101600068022500F043
:102A800002000590C020CDE9000502AA0326052713
:102A900082E8D00069460D48FEF77CFC0820CDE9AD
:102AA000000502AA694682E8D0000948FEF772FCD8
:102AB000022206212320FFF7A7F92320FFF772F94E
:102AC00007B0F0BD00300140443802400000024031
:102AD00000040240704770472DE9F0470446006843
:102AE000324E334FDFF8CC80DFF8CC900D464FF0FC
:102AF000804AB0420CD050450AD0B84208D0404578
:102B000006D0484504D040F277712CA002F036FA86
:102B1000286890B1102810D020280ED030280CD072
:102B200040280AD0502808D0602806D0702804D049
:102B30004FF4EF6121A002F021FA6868802805D0E7
:102B400020B140F279711DA002F018FA94F83C000F
:102B5000012828D0012284F83C20022084F83D007E
:102B6000216848688B6820F0700C286840EA0C00E7
:102B700048602068B0420AD0504508D0B84206D01C
:102B8000404504D0484502D01B49884204D16968B9
:102B900023F080031943816084F83D20002084F8ED
:102BA0003C00BDE8F0870220FBE700000000014088
:102BB0000004004000080040000C00402E2E2F446E
:102BC0007269766572732F53544D33324634787878
:102BD0005F48414C5F4472697665722F5372632F70
:102BE00073746D3332663478785F68616C5F7469D2
:102BF0006D5F65782E6300000040014010B5040051
:102C000046D036492068884219D0B0F1804F16D09E
:102C10003349884213D03349884210D03249884220
:102C20000DD0324988420AD03149884207D0314913
:102C3000884204D040F213112FA002F09FF9A0683F
:102C400060B110280AD0202808D0402806D060287B
:102C500004D04FF48A7128A002F090F9206950B195
:102C6000B0F5807F07D0B0F5007F04D040F2151199
:102C700021A002F083F9A06930B1802804D04FF47C
:102C80008B711DA002F07AF994F83D0010B107E0B5
:102C9000012010BD002084F83C00204600F048F8D8
:102CA000022084F83D00211D206801F0FDFC012078
:102CB00084F8460084F83E0084F83F0084F8400021
:102CC00084F8410084F8420084F8430084F844000A
:102CD00084F8450084F83D00002010BD000001404C
:102CE0000004004000080040000C0040004001408B
:102CF00000440140004801402E2E2F447269766541
:102D000072732F53544D3332463478785F48414CB8
:102D10005F4472697665722F5372632F73746D33DB
:102D200032663478785F68616C5F74696D2E630019
:102D300008B50068154988420FD11548016841F06F
:102D4000080101600068012200F0080000900721DE
:102D50003220FFF759F8322012E00E49884213D191
:102D60000B48001D016841F48031016000680222B7
:102D700000F48030009007211820FFF745F8182054
:102D8000BDE80840FFF70EB808BD0000000C004089
:102D900040380240004001402DE9F04707460068F6
:102DA000234C244D244EDFF89480DFF894904FF0AC
:102DB000804AA04214D0504512D0A84210D0B04250
:102DC0000ED040450CD048450AD01E49884207D055
:102DD0001D49884204D040F2CF111CA002F0CEF869
:102DE00097F83D00012802D00120BDE8F0870220BD
:102DF00087F83D003868C16841F00101C16038685A
:102E0000A04209D0504507D0A84205D0B04203D017
:102E1000404501D0484504D1816801F007010629E9
:102E200003D0016841F0010101600020DDE70000EE
:102E3000000001400004004000080040000C004079
:102E40000040014000440140004801402E2E2F4424
:102E50007269766572732F53544D333246347878E5
:102E60005F48414C5F4472697665722F5372632FDD
:102E700073746D3332663478785F68616C5F74693F
:102E80006D2E63002DE9F05F054690F83C000C467E
:102E900001283FD04FF0010B85F83CB0022085F8A7
:102EA0003D0020684FF480594FF4005A484515D032
:102EB000504513D090B1102810D020280ED03028C3
:102EC0000CD040280AD0502808D0602806D070289E
:102ED00004D041F22241B9A002F050F8286881687C
:102EE00021F0770121F47F4181602068C149C24A05
:102EF000C24BC34EC34F4FF0804C4FF40048502894
:102F000070D00FDC202804D007DC0028FBD010286C
:102F10004ED13EE10220BDE8F09F3028F9D0402894
:102F2000F6D107E160287DD070285CD0484540D0BC
:102F30005045EDD1286888420CD060450AD09042B7
:102F400008D0984206D0B04204D041F24D419BA037
:102F500002F014F8A06858B1484509D0504507D090
:102F6000B0F5405F04D041F2504194A002F006F861
:102F70006068404509D040B1022806D00A2804D034
:102F800041F251418DA001F0F9FFE0680F2804D90A
:102F900041F2524189A001F0F1FFD4E90121E36837
:102FA000286801F0A8FC2868816841F480418160AC
:102FB000BAE028688842FBD06045F9D09042F7D04B
:102FC0009842F5D0B042F3D0B842F1D08E49884251
:102FD000EED08E498842EBD041F22E4177A001F02D
:102FE000CDFFA1E041E0286888420ED060450CD0BA
:102FF00090420AD0984208D0B04206D0B84204D0DD
:1030000041F235416DA001F0B9FFA06868B14845B3
:103010000BD0504509D0B0F5405F06D041F23841A1
:1030200066A000E050E001F0A9FF6068404509D0CB
:1030300040B1022806D00A2804D041F239415FA0ED
:1030400001F09CFFE0680F2804D941F23A415BA0EF
:1030500001F094FFD4E90121E368286801F04BFCFA
:103060002868816841F07701A1E7286888420ED07E
:1030700060450CD090420AD0984208D0B04206D0A9
:10308000B84204D041F261414CA001F077FF606882
:10309000404509D040B1022806D00A2804D041F2A8
:1030A000644146A001F06AFFE0680F2804D941F2AC
:1030B000654142A001F062FFE2686168286801F0A2
:1030C000B5FD502128682DE0286888420ED0604563
:1030D0000CD090420AD0984208D0B04206D0B842F4
:1030E00004D041F2714135A001F048FF60684045CD
:1030F00009D040B1022806D00A2804D041F2744118
:103100002EA001F03BFFE0680F2804D941F2754181
:103110002AA001F033FFE2686168286801F097FD9A
:103120006021286801F0F1FB85F83DB0002085F8AA
:103130003C00F0E6286888420ED060450CD09042F2
:103140000AD0984208D0B04206D0B84204D041F22A
:1031500081411AA001F012FF6068404509D040B1DA
:10316000022806D00A2804D041F2844113A001F0BD
:1031700005FFE0680F2804D941F285410FA001F056
:10318000FDFEE2686168286801F050FD4021286872
:10319000C8E7286888420ED060450CD090420AD01B
:1031A000984208D0B04206D0B84204D041F29441CF
:1031B00002A001F0E3FE21682868B3E72E2E2F4419
:1031C0007269766572732F53544D33324634787872
:1031D0005F48414C5F4472697665722F5372632F6A
:1031E00073746D3332663478785F68616C5F7469CC
:1031F0006D2E630000000140000400400008004004
:10320000000C0040004001400044014000480140E3
:103210007047704770B50446006801694FF00005BB
:10322000C943890715D4C168C943890711D4E91E68
:10323000016101202077206880698007204602D044
:10324000FFF7E7FF04E000F0C1F8204600F0A0FA25
:10325000257720680169C943490717D4C168C94364
:10326000490713D46FF00401016102202077206820
:10327000806910F4407F204602D0FFF7CAFF04E0C7
:1032800000F0A4F8204600F083FA25772068016951
:10329000C943090716D4C168C943090712D46FF09E
:1032A00008010161042020772068C069800720465A
:1032B00002D0FFF7AEFF04E000F088F8204600F0EF
:1032C00067FA257720680169C943C90617D4C16820
:1032D000C943C90613D46FF010010161082020779B
:1032E0002068C06910F4407F204602D0FFF791FFAC
:1032F00004E000F06BF8204600F04AFA25772068D9
:103300000169C943C90708D1C168C943C90704D1C4
:10331000891E0161204600F075FB20680169C943E0
:10332000090609D4C168C943090605D46FF08001B4
:1033300001612046FFF7CEFB20680169C9434906B9
:1033400009D4C168C943490605D46FF04001016141
:10335000204600F06FFB20680169C94389060BD441
:10336000C168C943890607D46FF020010161204676
:10337000BDE87040FFF7AFBB70BD000010B586B070
:10338000044614216846FCF7CFFF0D4920688842A7
:1033900014D10C480021026842F004020260006867
:1033A00000F004000590802000900220CDE901018A
:1033B000CDE9031069460448FDF7ECFF06B010BDE7
:1033C000000400403038024000080240704700000E
:1033D0002DE9F04116000D4604460CD0042E0AD00B
:1033E000082E08D00C2E06D03C2E04D041F2170136
:1033F0006AA001F0C3FD2868602806D0702804D0B8
:1034000041F2180165A001F0B9FDA86830B10228A9
:1034100004D041F2190161A001F0B0FD286930B17A
:10342000042804D041F21A015CA001F0A7FD94F831
:103430003C00012812D001206649674A674B684F5B
:10344000DFF8A0C184F83C004FF0804E4EB1042E4E
:1034500032D0082E57D00C2E54D177E00220BDE890
:10346000F0812068884214D0704512D0904210D06C
:1034700098420ED0B8420CD060450AD05A498842D2
:1034800007D05A49884204D041F2240143A001F0F8
:1034900075FD2946206801F041FA2068816941F0F4
:1034A000080181612068816921F00401816120683F
:1034B00081692A69114324E0206888420ED0704552
:1034C0000CD090420AD0984208D0B84206D060454D
:1034D00004D041F2350131A001F050FD29462068A9
:1034E00001F082FA2068816941F4006181612068FD
:1034F000816921F480618161206881692A6941EADA
:103500000221816146E0206888420CD070450AD0D3
:10351000904208D0984206D0B84204D041F2460109
:103520001EA001F02BFD2946206801F0C7FA206893
:10353000C16941F00801C1612068C16921F004013D
:10354000C1612068C1692A69114322E0206888426C
:103550000CD070450AD0904208D0984206D0B842AC
:1035600004D041F257010DA001F008FD2946206862
:1035700001F00EFB2068C16941F40061C16120685F
:10358000C16921F48061C1612068C1692A6941EA89
:103590000221C161002084F83C0060E72E2E2F44F8
:1035A0007269766572732F53544D3332463478788E
:1035B0005F48414C5F4472697665722F5372632F86
:1035C00073746D3332663478785F68616C5F7469E8
:1035D0006D2E630000000140000400400008004020
:1035E000000C004000400140004401400048014000
:1035F00010B5040046D036492068884219D0B0F191
:10360000804F16D03349884213D03349884210D0B6
:10361000324988420DD0324988420AD03149884225
:1036200007D03149884204D040F20E512FA001F05A
:10363000A5FCA06860B110280AD0202808D0402836
:1036400006D0602804D040F20F5128A001F096FC6B
:10365000206950B1B0F5807F07D0B0F5007F04D06D
:103660004FF4A26121A001F089FCA06930B180284B
:1036700004D040F211511DA001F080FC94F83D00EF
:1036800010B107E0012010BD002084F83C00204666
:1036900000F048F8022084F83D00211D206801F068
:1036A00003F8012084F8460084F83E0084F83F00C7
:1036B00084F8400084F8410084F8420084F8430014
:1036C00084F8440084F8450084F83D00002010BDD3
:1036D000000001400004004000080040000C0040D1
:1036E0000040014000440140004801402E2E2F447C
:1036F0007269766572732F53544D3332463478783D
:103700005F48414C5F4472697665722F5372632F34
:1037100073746D3332663478785F68616C5F746996
:103720006D2E630038B5054600681549884225D1DD
:1037300014480021026842F0020202600068134C43
:1037400000F002000090104820604FF020606060A0
:103750004020C4E902010001206140006061800056
:10376000A0614011E0610002C4E908012046FDF7B4
:1037700001FC08B1FCF793FFAC62A56338BD000003
:10378000000400404038024088600240F4020020FB
:10379000704770472DE9FF5F04460068814E824FF5
:1037A000DFF80882DFF80892DFF808A20D464FF034
:1037B000804BB04207D1002D4CD0042D51D0082DA4
:1037C00056D00C2D3DD0584507D18DB3042D48D08F
:1037D000082D4DD00C2D34D027E0B84206D13DB392
:1037E000042D3ED0082D43D00C2D2AD0404506D1C3
:1037F000F5B1042D35D0082D3AD00C2D21D04845F7
:1038000006D1ADB1042D2CD0082D31D00C2D18D0FF
:10381000504502D165B1042D23D06749884200D1BB
:1038200035B16649884200D115B140F28B6100E0A4
:1038300010E063A001F0A2FB65B1042D11D0082DAA
:1038400016D094F84100022819D094F841000128BC
:1038500019D0A0E094F83E00022810D094F83E0061
:10386000F5E794F83F00022809D094F83F00EEE70E
:1038700094F84000022802D094F84000E7E70220C4
:1038800004B0BDE8F09F029808B9039878BB5A4984
:103890005A4A5B4B022045B1042D17D0082D27D082
:1038A00084F841000C2D3ED167E084F83E00606A48
:1038B000C163606A0264606AC364DDE9021322685E
:1038C000606A3432FDF7C6FC88B922E084F83F0014
:1038D000A06AC163A06A0264A06AC364DDE902133E
:1038E0002268A06A3832FDF7B5FC00B916E03EE068
:1038F00084F84000E06AC163E06A0264E06AC3647D
:10390000DDE902132268E06A3C32FDF7A3FC70BBDC
:103910002EE02068C16841F4007103E02068C168AE
:1039200041F48061C16001222946206800F008FF4F
:103930002068B04203D1416C41F4004141642068E9
:10394000B04209D0584507D0B84205D0404503D011
:10395000484501D0504504D1816801F0070106298E
:1039600003D0016841F001010160002088E712E006
:103970002068C16841F40061D4E7206BC163206B0B
:103980000264206BC364DDE902132268206B4032BD
:10399000FDF760FC08B1012072E72068C16841F4BE
:1039A0008051BFE7000001400004004000080040D3
:1039B000000C00400040014000440140004801402C
:1039C0002E2E2F447269766572732F53544D333205
:1039D000463478785F48414C5F4472697665722F4F
:1039E0005372632F73746D3332663478785F686115
:1039F0006C5F74696D2E63000D4800086B48000809
:103A0000A34800080068B0F1804F09D006498842F9
:103A100008D00649884205D120210548FDF71EBE81
:103A2000FEF748B970470000000C0040004001401C
:103A3000000002407047FEE70148FDF77DBE000030
:103A40001001002038B5806B002190F83D202B4BF1
:103A500046F2A8141B68B3FBF4F3C3EBC30303EBF8
:103A6000830300933BB15B1E009303681B689B05B7
:103A700005D5009BF6E7036C43F020030364436B1A
:103A800003B1D963836B03B1D96303681C6824F461
:103A900080641C604185436B03B11965836B03B17E
:103AA000196503681C6824F001041C6090F83D400F
:103AB0002023602C0BD0282434EA02020FD080F897
:103AC0003D3080F83E1000BFFDF768FF38BD80F83C
:103AD0003D3080F83E100164FDF72CFE38BD0268D1
:103AE000136843F0010313600268136843F48063B2
:103AF0001360016380F83D40E6E700003C000020D1
:103B000070B5044690F83D0094F83E10102901D09D
:103B1000402906D1222804D121680A6822F40062D3
:103B20000A60282131EA00024FF000054FF020061C
:103B300026D021684968090505D4602803D084F897
:103B40003D6084F83E50256320684168090537D5FB
:103B5000416821F400614160606B90F835203C4978
:103B6000012A11D00165606BFDF71EF938B320689A
:103B7000016821F00101016084F83D60606B1CE088
:103B8000256384F83D10DFE7A06B0165A06BFDF7AE
:103B90000BF9A0B120684169C943490605D4006901
:103BA000616A0870606A401C60622068016821F0E8
:103BB0000101016084F83D60A06B016D884710E051
:103BC00094F83D10602910D04169C943490605D4D5
:103BD0000069616A0870606A401C60622046FDF7F7
:103BE000DDFE206CC1071CD115E084F83D60256422
:103BF0004169C943490605D40069616A0870606A71
:103C0000401C60622068016821F0010101602046CB
:103C1000FDF790FDE5E7810703D4410701D40007D4
:103C200004D52068416821F4E061416094F83D00CA
:103C3000216C49070BD5282809D10648E062256385
:103C400084F83D6084F83E502046FDF7EDFF70BDDE
:103C5000453A00080000FFFF10B5C26A438D0168B5
:103C6000042B06D0438D032B08D0438D022B1DD08F
:103C700012E04A6822F480624A600CE04B6823F448
:103C800080634B60042A06D0022A04D001680A68C7
:103C900022F480620A6001680969426A1170416A0F
:103CA000491C4162418D491E418510BD012A30D019
:103CB000102A2ED0042A30D0022A2ED00A6842F4CC
:103CC00000720A6001680969426A1170416A491C00
:103CD0004162428D521E4285026812690A70416A31
:103CE000491C4162418D491E418501684A6822F4A0
:103CF00040724A60202180F83D1090F83E2000215B
:103D0000402A80F83E100CD012210163FDF78DFF90
:103D100010BD0A6822F48062D3E70A6842F4806228
:103D2000CFE70163FDF783FF10BD000038B590F8C1
:103D30003D10222914D1418D032912D90168096946
:103D4000426A1170416A491C4162418D491E418598
:103D5000418D032904D10068416821F480614160EC
:103D600038BDC26A022AFBD0012901D00029F7D14F
:103D7000274946F2A81300220968B1FBF3F101EBD1
:103D80008101009101682023009C641E009422D0D0
:103D90000C68A405F8D40C6824F480640C600168F5
:103DA0004C6824F4E0644C6001680969446A21703D
:103DB000416A491C4162418D491E418580F83D3070
:103DC00090F83E1080F83E2040291DD0122101635A
:103DD000FDF72BFF38BD046C44F0200404644C68EC
:103DE00024F4E0644C6001680969446A2170416A06
:103DF000491C4162418D491E418580F83D3080F863
:103E00003E20FDF7CBFD38BD0263FDF710FF38BD46
:103E10003C00002010B5C16A90F83D20212A0BD14A
:103E2000428D52B1416A026809781161416A491CA8
:103E30004162418D491E418510BD00222023082981
:103E400010D020290ED011F5803F0BD001684C68AE
:103E500024F4E0644C601121016380F83E2080F876
:103E60003D300EE001684C6824F4E0644C60016869
:103E70000C6844F400740C60026380F83D3080F8F4
:103E80003E20FDF7D3FE10BD10B590F83D1090F820
:103E90003E30C26A048DB4B1212903D0402B11D128
:103EA00022290FD1418DE1B390F83E10402942D034
:103EB000416A026809781161416A491C4162418D79
:103EC000491E418510BD2129E8D120230021082A5F
:103ED00013D0202A11D012F5803F0ED0026854680A
:103EE00024F4E06454601122026380F83E1080F8EC
:103EF0003D3000BFFDF79AFE10BD0268546824F4FF
:103F0000E06454600268146844F40074146001634F
:103F100080F83D3090F83E2080F83E10402AE9D1EC
:103F200000E002E0FDF784FE10BD0068416821F466
:103F30008061416010BDBDE8104000F0D3B80000C2
:103F400078B590F83E50C26A036B90F83D6000244B
:103F50000168222E7AD1066D0EB9402D76D0056DFE
:103F60001DB90569B5F5404F09D0458D05B3468D9E
:103F7000384D012E0ED0438D022B3AD05DE04A69B8
:103F80008A6900920A6842F480720A60016D491CD5
:103F9000016578BDAA4213D10A6822F480620A60E2
:103FA00001684A68120503D50A6822F4806216E0A7
:103FB0004A698A6900920A6842F400720A6039E02C
:103FC000082A10D0202A0ED0122B0AD0042A03D09F
:103FD000022A01D0102AE7D10A6842F480620A60FE
:103FE00024E0012AE0D00A6822F480620A600168B5
:103FF000DEE7042A21D0022A1FD0102A1DD00B6828
:1040000023F480630B6001680B6843F400630B606A
:1040100001684B681B0509D5AA4212D0012A10D0AD
:10402000082A0ED0102A0CD0202A0AD001684A692A
:1040300089690091046578BD08E00B6843F48063EA
:10404000E5E74A6842F480524A60EFE748698869C8
:104050000090F0E70000FFFF90F83E10402910D0DC
:104060000169B1F5804F19D0016DA9B3016D012926
:1040700010D1416C5FF0F10201F4407142EAD111BC
:1040800006E0016D0029416C05D0C9B241F0010183
:1040900000680161704701F0FE01F9E790F83D10FA
:1040A0002129416C09D0C9B241F0010102681161B6
:1040B000416B29B1C96B49B902E001F0FE01F5E796
:1040C000816B0029E6D0C96B0029E3D00068416804
:1040D00041F4006141607047FFE7416CF02201F458
:1040E0004071CBE710B590F83D10026D22B3026D20
:1040F000012A2FD0026D022A1DD1222931D0428DF2
:104100000AB1212933D0428D002A14D1212912D19C
:1041100001684A6822F4E0624A6001680A6842F471
:1041200000720A6000210163202280F83D2080F89F
:104130003E10FDF77DFD10BDC16C0129816C02D0E0
:10414000C1F3072108E00268C9B21161016D891C41
:10415000016510BD816CC9B202681161016D491C15
:10416000F6E70068016841F48071016010BD416AA2
:10417000026809781161416A491C4162418D491EFA
:10418000418510BDF8B590F83D600446006841686F
:1041900021F4E061416020680025416900910168D7
:1041A00041F0010101602068016821F48061016033
:1041B00020684168090520D5474F222E48D02A2E75
:1041C00046D0616B096849686185618D19B1216CC0
:1041D00041F004012164416821F400614160606B99
:1041E000FCF7F4FD012808D0606B0765606BFCF7F5
:1041F000DBFD10B1606B016D8847608D08B32068EE
:104200004169C943490708D40069616A0870606A56
:10421000401C6062608D401E608520684169C94312
:10422000490608D40069616A0870606A401C6062CF
:10423000608D401E6085608D18B1206C40F00400D8
:104240002064206C00B32046BDE8F840FFF758BC5E
:10425000A16B096849686185618D19B1216C41F0D4
:1042600004012164416821F400614160A06BFCF706
:10427000ADFD0128C1D0A06B0765A06BFCF794FDD4
:104280000028BAD0A06BB6E72A2E06D125632820D5
:1042900084F83D002046FDF70BFD94F83D102020EA
:1042A00028290DD0216B222901D0222E07D1256388
:1042B00084F83D0084F83E502046FDF7F9FCF8BD37
:1042C0000649E162256384F83D0084F83E502046AB
:1042D000FDF7AAFCF8BD0000453A00080000FFFF0A
:1042E00007490968C9070AD0054980390968C9071B
:1042F00005D04FF060410A68002AFCD00870704772
:10430000800E00E07FB500241548009401940294CB
:104310001249039401604FF48031C0E90114012572
:104320000461057680F820400E49C0E90A14C56191
:10433000C46080F830504561FCF71AFB08B172B6D2
:10434000FEE707200094CDE9015069460448FCF7D8
:1043500013FA002801D072B6FEE77FBD00200140AD
:10436000C80000200100000F30B587B01421684656
:10437000FBF7DAFF1F480024016841F004010160E7
:10438000016801F004010591016841F0010101603B
:10439000016801F001010591016841F0020101602D
:1043A0000068154D00F002000590002228212846E3
:1043B000FDF784F94FF4005000901048CDE9010456
:1043C00069460F48FCF7E6FF282000900120CDE960
:1043D00001040220039069462846FCF7DBFF002217
:1043E00006212820FDF710FD2820FDF7DBFC07B093
:1043F00030BD0000303802400000024000001110C3
:10440000000802400E4810B50C4901604FF482715B
:104410004160002181600122C160C0E904125202A2
:10442000C0E906210162416281620A21C162FEF790
:10443000D1F9002801D072B6FEE710BD003001406E
:104440006401002010B529488EB00024016841F0B5
:10445000020101600068079400F002000894CDE9B1
:104460000C4009940A941C210B946846FBF75CFFEE
:1044700020481F4901600921C0E9011440F2E731D9
:10448000C0E903148461FEF7B9FB08B172B6FEE718
:104490004FF48050079007A91648FEF7F3FC08B1C7
:1044A00072B6FEE71348FFF7A3F808B172B6FEE74D
:1044B0000B940BA90F480C94FEF70EFB08B172B6D3
:1044C000FEE76020CDE90004029404226946094811
:1044D0000494FEF77DFF08B172B6FEE70548FFF7CA
:1044E00021F90448FEF74AFF0EB010BD40380240E3
:1044F00000040040BC01002010B586B0002416481E
:104500000094019402940394049412490594C0E920
:104510000014611EC0E9024104618461FEF76EFB74
:1045200008B172B6FEE74FF48050009069460A4821
:10453000FEF7A8FC08B172B6FEE7049404A9064889
:104540000594FEF7C9FA002801D072B6FEE706B05E
:1045500010BD0000000C0040040200201FB5002127
:1045600010480091019102910D4A0391026042F2BC
:104570000F72C0E90121C0E903218161FEF73EFB12
:1045800008B172B6FEE74FF48050009069460548C6
:10459000FEF778FC002801D072B6FEE71FBD0000D0
:1045A000004001404C020020FEE7FEE70148FEF714
:1045B00093B800006401002010B5806B0021C18712
:1045C000C186FEF787F810BD10B54FF0E0200069F6
:1045D00002F008F9012803D0BDE8104001F0AABD9F
:1045E00010BD000030B593B030216846FBF79CFE4B
:1045F00014210CA8FBF798FE1C480024016841F028
:1046000080510160006800F08050119018480168E6
:1046100041F4404101600068022500F440401190DF
:10462000012003901020009506950490CDE90740E5
:10463000C820CDE9090504200B906846FDF7F6FD7A
:1046400008B172B6FEE70F20CDE90C054FF480509B
:10465000CDE90E4003210CA81094FDF765FC00285D
:1046600001D072B6FEE713B030BD00004038024002
:10467000007000400248016841F470010160704719
:1046800088ED00E00148FEF7C5BD00004C020020A7
:104690000148FEF7BFBD0000540300200148FEF7AB
:1046A000B9BD000004020020F0B502681D4B1E4C8D
:1046B0009F031E4D1E4E984207D0B84205D0A0421F
:1046C00003D0A84201D0B04204D122F0700C4A6855
:1046D00042EA0C02984210D0B8420ED0A0420CD050
:1046E000A8420AD0B04208D0124CA04205D0124CC9
:1046F000A04202D0114CA04203D122F44074CA68F7
:1047000022434C6922F08002224302608A68C2621E
:104710000A688262984201D10969016301214161FD
:10472000F0BD00000000014000040040000800400F
:10473000000C00400040014000440140004801409E
:1047400070B504461C4816460D46844219D0B4F193
:10475000804F16D01948844213D01948844210D093
:10476000184884420DD0184884420AD01748844221
:1047700007D01748844204D041F6D24115A000F07A
:10478000FDFB65B1042D0AD0082D08D00C2D06D0F4
:104790003C2D04D041F6D3410EA000F0EFFB05F014
:1047A0001F010120226A884082432262206A8E40D3
:1047B0003043206270BD0000000001400004004052
:1047C00000080040000C004000400140004401404F
:1047D000004801402E2E2F447269766572732F5364
:1047E000544D3332463478785F48414C5F447269A7
:1047F0007665722F5372632F73746D33326634781B
:10480000785F68616C5F74696D2E630010B5846BAE
:104810000121626A824205D12177C069F8B984F822
:104820003E101CE0A26A824206D102222277C069B1
:10483000A8B984F83F1012E0E26A824206D104224D
:104840002277C06958B984F8401008E0226B824290
:1048500005D108222277C06908B984F841102046A2
:10486000FEF796FF0020207710BD10B5846B616ABB
:10487000814201D101200DE0A16A814201D10220D3
:1048800008E0E16A814201D1042003E0216B81420A
:1048900001D1082020772046FEF77BFF00202077FB
:1048A00010BD10B5846B0121626A824203D1217769
:1048B00084F83E1019E0A26A824204D102202077D7
:1048C00084F83F1011E0E26A824204D1042020778C
:1048D00084F8401009E0226B824204D1082020773E
:1048E00084F8411001E084F83D102046FEF790FC6A
:1048F0000020207710BD10B5846842EA032224F41A
:104900007F440A432243826010BD826822F0700215
:104910000A4342F007018160704700002DE9F04131
:104920000446006A0D4620F001002062206A676894
:10493000A169AE6820F0020021F0730206432968E5
:104940001A4841EA0208844228D1E86830B10828B0
:1049500004D041F6082116A000F010FBE86826F00C
:104960000801084320F00406A869B0F5007F05D0CF
:1049700020B141F615210EA000F000FB6869B0F5EA
:10498000807F05D020B141F6162109A000F0F6FA8B
:1049900027F440716869AF69084307436760C4F84A
:1049A0001880686860632662BDE8F08100000140FD
:1049B0002E2E2F447269766572732F53544D333205
:1049C000463478785F48414C5F4472697665722F4F
:1049D0005372632F73746D3332663478785F686115
:1049E0006C5F74696D2E63002DE9F0410446006A26
:1049F0000D4620F010002062206A6768A1692A68CD
:104A000021F4E64141EA0228A96820F0200040EAAA
:104A100001161B4884422BD1E86830B1082804D025
:104A200041F6532117A000F0A9FAE96826F08000AA
:104A300040EA011020F04006A869B0F5007F05D0DB
:104A400020B141F661210FA000F098FA6869B0F535
:104A5000807F05D020B141F662210AA000F08EFAD5
:104A6000696927F4406040EA8100A96940EA81074A
:104A70006760C4F818806868A0632662BDE8F081AA
:104A8000000001402E2E2F447269766572732F53F9
:104A9000544D3332463478785F48414C5F447269F4
:104AA0007665722F5372632F73746D333266347868
:104AB000785F68616C5F74696D2E63002DE9F04169
:104AC0000446006A0D4620F480702062206A676800
:104AD000E16920F4007021F07302296841EA0208BC
:104AE000A96840EA01261B4884422BD1E86830B10E
:104AF000082804D041F69E2117A000F03FFAE9688B
:104B000026F4006040EA012020F48066A869B0F530
:104B1000007F05D020B141F6AB210FA000F02EFAA6
:104B20006869B0F5807F05D020B141F6AC210AA0BC
:104B300000F024FA696927F4405040EA0110A9699D
:104B400040EA01176760C4F81C806868E063266269
:104B5000BDE8F081000001402E2E2F447269766579
:104B600072732F53544D3332463478785F48414C3A
:104B70005F4472697665722F5372632F73746D335D
:104B800032663478785F68616C5F74696D2E63009B
:104B90002DE9F0410446006A0D4620F48050206261
:104BA000206A6668E1692A6821F4E64141EA022840
:104BB000A96820F4005040EA01370D4884420ED124
:104BC0006869B0F5807F05D020B141F6EA2109A0DF
:104BD00000F0D4F9696926F4804040EA81166660E5
:104BE000C4F81C80686820642762BDE8F08100007A
:104BF000000001402E2E2F447269766572732F5388
:104C0000544D3332463478785F48414C5F44726982
:104C10007665722F5372632F73746D3332663478F6
:104C2000785F68616C5F74696D2E630010B5036A0C
:104C3000046A24F001040462846924F0F00444EA64
:104C4000021423F00A020A438461026210BD10B507
:104C5000036A23F0100303628369046A23F4704338
:104C600043EA023224F0A00343EA011182610162A7
:104C700010BD000008B50A4D0A4E4FF47A7400BF0B
:104C800001F0BEFD00902146684601F047F8002083
:104C900000F0F4FEA86220213046FCF7DFFCEFE7CD
:104CA00004000020000002400B4C4FF0FF3631465C
:104CB000012000F09BFE0546002000F0DFFE206290
:104CC000E80703D0E06901F0B1F8F0E7A807EED5F6
:104CD000E06901F02DF9EAE70400002008B501229F
:104CE0001A491B48FBF798FF184A0123121D04219B
:104CF0001848FEF74FFD1848016841F080710160C7
:104D0000164D00206860286840F0010028601420DB
:104D100000F0DEFF0D4C00BF01F072FD009032216B
:104D2000684600F0FBFF002000F0A8FE60626868A3
:104D3000A06020684FF47A514843000C60606868B6
:104D4000E060E068A168401A2061E5E70400002007
:104D5000C8000020BC010020FCED00E0001000E0D5
:104D6000FEE700000FB4054B10B503A9044A0298F2
:104D700000F028F810BC5DF814FB0000BD4F0008DF
:104D8000C00000200907090E002804DB00F1E02024
:104D900080F80014704700F00F0000F1E02080F868
:104DA000141D704702E008C8121F08C1002AFAD17A
:104DB00070477047002001E001C1121F002AFBD19B
:104DC000704700002DE9FF4F8BB09A460F4605460D
:104DD000002606E025280BD052460D9990476D1C01
:104DE000761C28780028F5D10FB03046BDE8F08F4A
:104DF0000024A0460122604900E0044315F8013F69
:104E0000203B02FA03F00842F7D128782E2817D168
:104E100015F8010F44F004042A280ED06FF02F0279
:104E20002878A0F1300109290AD808EB880102EBA3
:104E3000410100EB01086D1CF2E757F8048B6D1C73
:104E4000287869283ED006DC0028CDD063280BD016
:104E5000642804D136E0732810D075284BD0524610
:104E60000D999047761C85E017F8040B8DF800002B
:104E700000208DF80100E946012003E057F8049B6B
:104E80004FF0FF3061074FF0000401D40AE0641CCA
:104E900044450DDA8442FADB19F804100029F6D1F2
:104EA00006E0641C8442FCDB19F804100029F8D1E8
:104EB000264404E019F8010B52460D999047641EF0
:104EC000F8D257E001CF4FF00A0B002802DA404237
:104ED0002D2102E0210504D52B218DF8241001217C
:104EE00003E0E10705D02021F7E70DF12009089143
:104EF0000CE00021F9E701CF4FF00A0BF9E7594622
:104F0000FBF71DFA01F1300209F8012D0028F6D156
:104F1000ADEB090000F1200B600701D44FF0010850
:104F2000D84502DDA8EB0B0000E0002080460024FD
:104F300006E009A85246005D0D999047641C761C56
:104F400008988442F5DB04E0302052460D999047E2
:104F5000761CB8F10001A8F10108F5DC05E019F8AC
:104F6000010B52460D999047761CBBF10001ABF145
:104F7000010BF4DC6D1C34E7092801000A460146E8
:104F800002A0FFF7EFFE00F0CBFDFEE757726F6E59
:104F90006720706172616D65746572732076616CF3
:104FA00075653A2066696C65202573206F6E206CEC
:104FB000696E652025640D0A00000000054A9142D3
:104FC00002D0054A914201D1FFF78AB94FF0FF3074
:104FD00070470000C0000020C400002008B5FCF7A6
:104FE00071FEFFF7FFFAFFF7BFF9254800240168BB
:104FF00041F480010160016801F4800100910168C1
:1050000041F4001101600068022200F400100090D9
:1050100005211020FCF7F8FE1020FCF7C3FE01224A
:1050200005213820FCF7F0FE3820FCF7BBFEFFF727
:1050300069F91548134901601449C0E901144FF496
:105040008041C0E9034144618461C4610462FCF7AA
:10505000A7FC08B172B6FEE7FFF7D4F9FFF7F2F943
:10506000FFF74AFAFFF77AFA00F012F8FBF719FB9C
:10507000FBF718FBFBF718FB00F01CF8FEE700003D
:10508000303802400054004010010020A08601008A
:10509000EFF3058010B16FF0050070470448016818
:1050A00011B14FF0FF3070470121016000207047BF
:1050B0009000002010B5EFF3058010B16FF00500EF
:1050C00010BD08480168012902D04FF0FF3010BD23
:1050D000054A002182F8141D0221016000F0E4FE5F
:1050E000002010BD900000200BE000E02DE9F04111
:1050F000154C0F460546E6682168002081F85A00E5
:105100002068001D00F0A6FC681C07D137B121689B
:10511000BDE8F0410D48091D00F0F6BC206835449B
:10512000B5424560216805D2A06BBDE8F041091D7C
:1051300000F0D2BC606B091D00F0CEFCA06A854275
:1051400000D2A562BDE8F081400000208C0800205C
:105150002DE9F041054600F0E3FC2D4CA068401C11
:10516000A06020682B4F10B1606930B32BE0256040
:10517000A068012827D1002606EB860007EB8000F7
:1051800000F09CFC761C382EF6D3234800F096FCE9
:105190002148143000F092FC1F48283000F08EFCAB
:1051A0001D483C3000F08AFC1B48503000F086FC63
:1051B000194860631430A06305E02068E96AC06A9A
:1051C000884200D82560606A401C60626864E86AB2
:1051D0002169884200D9206100EB800007EB800044
:1051E000291D00F091FC00F0BBFC606900280CD088
:1051F0002068E96AC06A884207D208494FF08050A7
:105200000860BFF34F8FBFF36F8FBDE8F0810000E0
:1052100040000020DC0300203C08002004ED00E0FA
:1052200038B500F07DFC104C2068C8B90F4800F07C
:1052300045FC0E48143000F041FC0C48E06014308E
:1052400020610A4B0020F03B009003F15002102136
:105250000A2000F085FF206010B105A100F002FDDA
:10526000BDE8384000F07CBC7C00002090090020A4
:10527000546D72510000000030B4026C0B46002ADD
:105280000BD0C1681144C1608468A14201D3016898
:10529000C16030BC1846FBF72EB830BC70472DE912
:1052A000F041856B174604460026026C82B1C7B1F7
:1052B000E068FBF720F8E168206C091AE1602268D9
:1052C000914202D2A168081AE060022F16D017E0BE
:1052D0002068A8B9A06801F0FDFA06460020A06089
:1052E0000EE06068FBF707F8216C606808446060B6
:1052F000A168884204D32068606001E005B16D1E9A
:105300006D1CA5633046BDE8F08110B5044690F8E9
:10531000590058B101280CD002280FD0502080F33A
:105320001188BFF34F8FBFF36F8FFEE7206B00F044
:105330002BFC2046BDE8104000F026BC10BD00004C
:1053400010484FF4C041420706D0C01D0D4920F05F
:105350000700411AC1F5C0410B4A00230144C2E9CC
:1053600000030839183A21F0070111604B600B6007
:105370000B1AC0E9001393604FF000405360506176
:105380007047000070140020AC000020154E164C31
:10539000A6F29C474FF08058DFF8509012E000BF13
:1053A00000F0BEFBF068C568281D00F053FBA06844
:1053B000401EA0606068401E606000F0D1FB28467F
:1053C000FFF7A3FF60680028EAD13868012805D9F3
:1053D000C9F80080BFF34F8FBFF36F8F00F06CFBF5
:1053E000F0E70000780800204000002004ED00E015
:1053F00070B51D46049C51B1C4F80020C4E90F01EA
:105400000121204600F0E0FE84F84C5070BD24607D
:10541000F4E700002DE9F05F8846DDE90B941546BE
:10542000834691009A460A9EA522206BFAF775FFE3
:105430006FF00301206B01EB8501084420F00707A2
:10544000780707D0502080F31188BFF34F8FBFF348
:105450006F8FFEE70025B8F1000F0FD05FF000005E
:10546000221818F8001082F8341018F8001011B142
:10547000401C1028F4D384F8435001E084F83450E1
:10548000382E00D33726E662C4E91365201D00F0EC
:1054900020FB04F1180000F01CFB2461C6F1380069
:1054A0006462A061656584F8585084F85A50524689
:1054B0005946384600F084FA2060B9F1000F01D057
:1054C000C9F80040BDE8F09F30B5114900E0114631
:1054D0000A688242FBD34B685C18844203D140685F
:1054E00018444860084643681C18944209D1084C87
:1054F000183C2468A24209D052681A4442600A68E3
:1055000012680260814200D0086030BD0460F9E793
:10551000AC00002070B5002441600B4D0061914249
:1055200006D8D11A8269914206D2011D286907E086
:105530009A4203D2994201D3012403E0011DE86895
:1055400000F0CAFA204670BD7C00002010B5044669
:1055500000F0E6FAA06B28B15FF0000400F000FB59
:10556000204610BD0124F9E730B589B03C4D6EE00E
:105570000498002806DADDE90601059A90470498A8
:10558000002864DB069C606910B1201D00F062FAFF
:1055900003A800F0D7F8024604980A2857D2DFE89B
:1055A00000F00505052D334A05052D3394F8280034
:1055B00040F0010084F828000599A069059B01448A
:1055C0002046FFF7A7FF68B3216A2046884794F872
:1055D000280040073BD5002000900598A1690023D2
:1055E00042181946204601F07FFAD8B9502080F3BE
:1055F0001188BFF34F8FBFF36F8FFEE714F8280FAA
:1056000020F00100207022E094F8280040F0010012
:1056100084F828000598A06128B181181346204617
:10562000FFF778FF13E0502080F31188BFF34F8F0E
:10563000BFF36F8FFEE794F82800810703D420465C
:1056400000F0A2FA03E020F0010084F82800002214
:1056500004A9286800F00CFF002889D109B030BDEA
:105660007C0000202DE9FC410F46054600F0AEFC11
:1056700001A800F067F80446019818B101F0A2F9FA
:10568000BDE8FC81254EAFB130690068D0B300277A
:10569000291B3A46306800F0F9FA01F093F9002826
:1056A000EED11F494FF080500860BFF34F8FBFF31A
:1056B0006F8FE5E7A542EBD801F084F9F068274643
:1056C000C068C468201D00F0C5F994F8280041079F
:1056D00019D5A0692B4641193A462046FFF71AFF13
:1056E000A8B100200346014600902A46204601F05A
:1056F000FBF960B9502080F31188BFF34F8FBFF3DF
:105700006F8FFEE707E020F0010084F82800216A8F
:1057100020468847B4E70127BAE700007C00002054
:1057200004ED00E00648416B096829B1416BC96886
:10573000C9684968816270474FF0FF31FAE700009D
:105740004000002070B5054601F05AF8064E0446A8
:10575000B068844203D200F009F8012000E0002084
:1057600028602046B46070BD7C000020F8B5194D5B
:1057700020E0C068C4680668201D00F06BF9216A4B
:105780002046884794F82800400713D5A069304484
:10579000B04206D924616060211DE86800F09CF9E0
:1057A00008E000200346014600903246204601F002
:1057B0009BF938B1E86801680029DAD12969C5E99F
:1057C0000310F8BD502080F31188BFF34F8FBFF353
:1057D0006F8FFEE77C000020002101E0401C491C87
:1057E0000278A52AFAD0C1F38F00704708484068B4
:1057F000401C4FF0500080F3118804D0BFF34F8F4E
:10580000BFF36F8FFEE7BFF34F8FBFF36F8FFEE7DE
:10581000B4000020002150B10A4B42699A420FD1D6
:10582000806AA3F1280290420AD040B108E05020DB
:1058300080F31188BFF34F8FBFF36F8FFEE7012115
:10584000084670478C080020074CE068016841B1A9
:10585000C0680021D0F80000FFF704FFFFF784FEC6
:10586000F3E701210020F7E77C0000202DE9F0415B
:10587000044600F055F994F9455004F1240609E076
:10588000606A48B1304601F065F808B100F094FA5A
:105890006D1E6DB2002DF3DC4FF0FF3684F84560CD
:1058A00000F05EF900F03CF994F9445004F110075F
:1058B00009E0206948B1384601F04CF808B100F021
:1058C0007BFA6D1E6DB2002DF3DC84F84460BDE8F8
:1058D000F04100F045B900002DE9F04105460027F0
:1058E00000F074FB354E306808B9FFF729FD706988
:1058F000054216D1ADB1083568070ED005F0070096
:10590000C0F108000544680707D0502080F31188D3
:10591000BFF34F8FBFF36F8FFEE715B170688542FD
:1059200002D901F04FF839E02448183001460C68DC
:1059300001E020460C466168A94202D22168002994
:10594000F7D131688C42ECD007682168016060684B
:105950000837411B10290ED96019420707D0502083
:1059600080F31188BFF34F8FBFF36F8FFEE7416065
:105970006560FFF7A9FD61687068401A7060B268E1
:10598000904200D2B060706901430020C4E9000178
:10599000F068401CF06001F015F80FB900F08DF8C8
:1059A000780707D0502080F31188BFF34F8FBFF3E3
:1059B0006F8FFEE73846BDE8F081000094000020BC
:1059C00010B5031F4FF080741C601B1F21F00101F4
:1059D0001960191F044B0B6014390A60091F6FF01E
:1059E000020244380A6010BDED57000870B50C463D
:1059F000064600F095F8154D2868406D80B9296875
:105A0000012081F858005CB101212046FFF76EFBB0
:105A10000F494FF080500860BFF34F8FBFF36F8F77
:105A200000F09EF800F07CF82868446D002034B146
:105A300016B12968486502E02A68611E5165296827
:105A400081F8580000F08CF8204670BD400000201E
:105A500004ED00E0D0E9013201699A60D0E9012348
:105A60005A604A68824201D182684A60002202611B
:105A70000868401E086008687047000008B90248BE
:105A80000068006BFFF7A8BE40000020034B0360D6
:105A900003F15C000860802010607047B8090020A6
:105AA000044B036003F15C0008604FF40070106069
:105AB00070470000140C00207047704700F1080187
:105AC0004FF0FF32C0E90112C160016100210160A5
:105AD000704700210161704730B50B685A1C02D035
